:100000000C945D000C9485000C9485000C94850084
:100010000C9485000C9485000C9485000C9485004C
:100020000C9485000C9485000C9485000C9485003C
:100030000C9485000C9485000C9485000C9485002C
:100040000C948B060C9485000C9459060C94330682
:100050000C9485000C9485000C9485000C9485000C
:100060000C94D5060C9485000000000024002700A5
:100070002A0000000008000201000003040700003D
:10008000000000000000040404040404040402024C
:100090000202020203030303030301020408102007
:1000A0004080010204081020010204081020000012
:1000B0000000250028002B00F40711241FBECFEFFD
:1000C000D8E0DEBFCDBF12E0A0E0B1E0E6E8FDE1A0
:1000D00002C005900D92A235B107D9F723E0A2E541
:1000E000B2E001C01D92A03FB207E1F710E0CDE5FC
:1000F000D0E004C02197FE010E94BB0ECC35D10791
:10010000C9F70E9438080C94C10E0C940000CF93DC
:10011000DF93AFE1B3E01196EC911197F0E0EE0FB1
:10012000FF1FE255FF4FC591D4919FB7F8941092ED
:10013000800088812C91822B88839FBF13961C920C
:100140001E921297DF91CF910895CF92DF92EF9296
:10015000FF92CF937C01BC01990F880B990B0E94F1
:10016000720D9701225031092133310590F42AE9AB
:1001700039E949E15FE30E94C80C6B017C0120E092
:1001800030E0A9010E94C30C811120C081E090E001
:1001900048C09701245331092C31310568F420E01F
:1001A00030E040E250E40E94C80C20E030E040E83B
:1001B00052E40E94570CE1CF80E5E816F10431F7D4
:1001C000C12CD12C80ECE82E82E4F82ECFB7F89425
:1001D00083E6809380008BE18093810089EF90E03B
:1001E000909389008093880020E030E040E250E462
:1001F000C701B6010E94270E20E030E040E85FE32F
:100200000E94560C0E943A0D70938B0060938A00F6
:10021000CFBF81E090E0909322038093210390E090
:1002200080E0CF91FF90EF90DF90CF9008952091E4
:100230001E0381E0213208F044C08091FA0281114E
:10024000FCCF80911D0392E09093FA0291E090938D
:10025000F9029FEF9093F8021092F7022093F602B2
:10026000ADEFB2E0E6EDF2E090E0291331C010927C
:10027000D5029091D502880F892B8093D502809169
:10028000D402813049F51092D4028091D502809336
:10029000BB008091BC0083FDF8CF85EC8093BC004F
:1002A0008091FA028230E1F38091F8028F3FB1F041
:1002B0008091F8028032A1F08091F802803391F0B1
:1002C00084E01092FC0210921E031092FB0208952B
:1002D0003D9131939F5FC9CF85EEE0CF80E0F1CFB4
:1002E00082E0EFCF83E0EDCF08950895AF92BF9203
:1002F000CF92DF92EF92FF920F931F93CF93DF93F2
:100300006C017B018B01040F151FEB015E01AE1820
:10031000BF08C017D10759F06991D601ED91FC9142
:100320000190F081E02DC6010995892B79F7C5016F
:10033000DF91CF911F910F91FF90EF90DF90CF90C1
:10034000BF90AF900895FC01538D448D252F30E070
:10035000842F90E0821B930B541710F0CF960895D2
:1003600001970895FC01918D828D981761F0A28DFF
:10037000AE0FBF2FB11D5D968C91928D9F5F9F73C5
:10038000928F90E008958FEF9FEF0895FC01918D7B
:10039000828D981731F0828DE80FF11D858D90E0E8
:1003A00008958FEF9FEF0895FC01918D228D892F85
:1003B00090E0805C9F4F821B91098F73992708956D
:1003C0008DE393E00E94D40121E0892B09F420E021
:1003D000822F089580E090E0892B29F00E94E001AF
:1003E00081110C9400000895FC01A48DA80FB92F71
:1003F000B11DA35ABF4F2C91848D90E001968F734D
:100400009927848FA689B7892C93A089B1898C916B
:10041000837080648C93938D848D981306C00288BA
:10042000F389E02D80818F7D80830895EF92FF9284
:100430000F931F93CF93DF93EC0181E0888F9B8D07
:100440008C8D98131AC0E889F989808185FF15C0C1
:100450009FB7F894EE89FF896083E889F9898081E4
:100460008370806480839FBF81E090E0DF91CF91B3
:100470001F910F91FF90EF900895F62E0B8D10E0D5
:100480000F5F1F4F0F731127E02E8C8D8E110CC044
:100490000FB607FCFACFE889F989808185FFF5CF8F
:1004A000CE010E94F401F1CFEB8DEC0FFD2FF11D79
:1004B000E35AFF4FF0829FB7F8940B8FEA89FB89CC
:1004C00080818062CFCFCF93DF93EC01888D88232A
:1004D000B9F0AA89BB89E889F9898C9185FD03C0A7
:1004E000808186FD0DC00FB607FCF7CF8C9185FF8C
:1004F000F2CF808185FFEDCFCE010E94F401E9CFDC
:10050000DF91CF91089590E0FC01EE58FF4F2491C8
:10051000FC01E656FF4F3491FC01EA57FF4FE4918E
:10052000EE23C9F0222339F0233001F1A8F4213061
:1005300019F1223029F1F0E0EE0FFF1FE255FF4FD5
:10054000A591B4918FB7F894EC91611126C03095C4
:100550003E233C938FBF08952730A9F02830C9F07F
:10056000243049F7809180008F7D03C08091800006
:100570008F7780938000DFCF84B58F7784BDDBCF0A
:1005800084B58F7DFBCF8091B0008F778093B000D2
:10059000D2CF8091B0008F7DF9CF3E2BDACF109271
:1005A000D3021092D2021092FC0210921E031092FB
:1005B000FA0281E08093F9021092D40261E082E1B4
:1005C0000E94830261E083E10E948302E9EBF0E094
:1005D00080818E7F808380818D7F808388E480937B
:1005E000B80085E48093BC0084E791E09093D10249
:1005F0008093D00285E791E09093CF028093CE0262
:100600000895CF93DF9390E0FC01E656FF4F2491CD
:100610008A579F4FFC0184918823D1F090E0880F86
:10062000991FFC01E859FF4FA591B491FC01E255D7
:10063000FF4FC591D491623071F49FB7F8943C910B
:10064000822F809583238C93E8812E2B28839FBF54
:10065000DF91CF9108958FB7F894EC912E2B2C93C6
:100660008FBFF6CF2FB7F8946091BA027091BB029A
:100670008091BC029091BD022FBF0895089585ED31
:100680008093BC008091BC0084FDFCCF1092FA02E4
:10069000089520919202260F3327331F213231050E
:1006A000ECF42091FA02FC0190E080E0243069F043
:1006B00082E00895A09192022191AC014E585D4FC5
:1006C000A40FB52FB11D2C930196861798F3809136
:1006D0009202680F6093920280E0089581E008958D
:1006E0000895E091D3028091D202E81730F4F0E04F
:1006F000EE5AFD4F808190E008958FEF9FEF0895AF
:100700009091D3028091D2022FEF3FEF981748F4D7
:10071000E92FF0E0EE5AFD4F208130E09F5F90938B
:10072000D302C90108958091D2029091D302891B0E
:10073000990B0895CF92DF92EF92FF920F931F9340
:10074000CF93DF937C01CB018A012091FB0222230E
:1007500089F0EB016B01C40ED51ECC15DD0569F0E7
:100760006991D701ED91FC910190F081E02DC701D5
:100770000995F3CF642F0E944903C801DF91CF91FF
:100780001F910F91FF90EF90DF90CF900895CF933E
:10079000DF931F92CDB7DEB769832091FB0222233E
:1007A000F9F020911E03203258F021E030E0FC01E6
:1007B0003383228390E080E00F90DF91CF91089502
:1007C0008091FC02E82FF0E0E350FD4F9981908387
:1007D0008F5F8093FC0280931E0381E090E0ECCF5A
:1007E00061E0CE0101960E944903F7CF6295607FD8
:1007F0004111616021116460FC0125812111686053
:10080000FC01848191E09093FB0280931D03109280
:10081000FC0210921E038AED93E00E94C7030C9421
:10082000170190E080E0089560E088E00C94830276
:100830000F931F93CF93DF93EC01162F042F21E02A
:100840000E94F60320E0402F612FCE010E94F603A4
:100850008FE890E00197F1F7DF91CF911F910F9111
:1008600008950F931F93CF93DF938C01C62FD42F3E
:1008700062956F700E9418046C2F6F704D2FC80125
:10088000DF91CF911F910F910C941804CF93DF93B8
:10089000CDB7DEB728970FB6F894DEBF0FBECDBF39
:1008A00098E0E0E4F1E0DE01119601900D929A9556
:1008B000E1F79091EF03691710F06FEF690F262FA2
:1008C00030E0220F331F41E050E04C0F5D1F240F3A
:1008D000351FF9016081680F606840E086EE93E0A3
:1008E00028960FB6F894DEBF0FBECDBFDF91CF9133
:1008F0000C94310441E00E94310481E090E00895BD
:1009000040E061E086EE93E00E9431048BE39FE1DA
:100910000197F1F708950F931F93CF93DF938B0106
:10092000877098E0899FB0011124606440E086EEF2
:1009300093E00E943104E801085F1F4F699186EE41
:1009400093E00E947A04C017D107C1F7DF91CF91DD
:100950001F910F910895FB0101900020E9F7319755
:10096000AF01461B570BDC01ED91FC910280F38136
:10097000E02D09948F929F92AF92BF92EF92FF92D7
:100980000F931F93CF93DF93CDB7DEB7A1970FB629
:10099000F894DEBF0FBECDBF7C01FA01CB0119A2D6
:1009A000223008F42AE08E010F5D1F4F822E912C19
:1009B000B12CA12CBF01A50194010E94990EF9014F
:1009C000CA016A300CF5605DD8016E938D01232B4E
:1009D000242B252B79F790E080E0109721F0BD01C2
:1009E000C7010E94AB04A1960FB6F894DEBF0FBEFC
:1009F000CDBFDF91CF911F910F91FF90EF90BF90EE
:100A0000AF909F908F900895695CDECFCF92DF9278
:100A1000EF92FF92CF93DF936C01990FEE08FF08DE
:100A2000F7FE1BC06DE28DE393E00E941602EC011D
:100A300044275527BA014C195D096E097F092AE040
:100A40008DE393E00E94BA048C0F9D1FDF91CF913C
:100A5000FF90EF90DF90CF9008952AE0B701A601B4
:100A60008DE393E0DF91CF91FF90EF90DF90CF90F7
:100A70000C94BA044F925F926F927F928F929F92E2
:100A8000AF92BF92CF92DF92EF92FF920F931F939C
:100A9000CF936B017C01742EAC019B010E94940EDC
:100AA00062E871E0811126C046015701E894B7F869
:100AB0002FEF3FEF4FE75FE7C501B4010E94940EAF
:100AC00081110CC02FEF3FEF4FE75FE7C501B40185
:100AD0000E94C30C66E871E0181664F02FEF3FEF38
:100AE0004FE75FE4C701B6010E94220E1816ACF46E
:100AF0006AE871E086EE93E0CF911F910F91FF902D
:100B0000EF90DF90CF90BF90AF909F908F907F90AD
:100B10006F905F904F900C94AB042FEF3FEF4FE737
:100B20005FECC701B6010E94C30C87FDE1CF20E056
:100B300030E0A901C701B6010E94C30C10E000E03B
:100B400087FF0CC041E06DE286EE93E00E94310425
:100B5000F7FAF094F7F8F09401E010E0C0E060E0FC
:100B600070E080E09FE37C1641F020E030E040E25E
:100B700051E40E94C80CCF5FF6CFA70196010E94F6
:100B8000570C4B015C010E94410D2B013C012AE0F6
:100B9000BC01A20186EE93E00E94BA04080F191F5F
:100BA000CC23D9F1C301B2010E94700D9B01AC01AD
:100BB000C501B4010E94560C4B015C0141E06EE29C
:100BC00086EE93E00E9431040F5F1F4FC15028F161
:100BD00020E030E040E251E4C501B4010E94270E5C
:100BE0002B013C010E94410D4B01B12CA12C2AE0AC
:100BF000B501A40186EE93E00E94BA04080F191F04
:100C0000C501B4010E94700D9B01AC01C301B2018A
:100C10000E94560C4B015C01D9CFC801CF911F91A6
:100C20000F91FF90EF90DF90CF90BF90AF909F908B
:100C30008F907F906F905F904F900895CF93DF9348
:100C4000BC018DE393E00E94AB04EC016EE871E01F
:100C50008DE393E00E94AB048C0F9D1FDF91CF9139
:100C600008950C94AB041F920F920FB60F921124AB
:100C70002F933F934F935F936F937F938F939F93A4
:100C8000AF93BF93EF93FF938DE393E00E94F40142
:100C9000FF91EF91BF91AF919F918F917F916F9154
:100CA0005F914F913F912F910F900FBE0F901F902A
:100CB00018951F920F920FB60F9211242F938F93B6
:100CC0009F93EF93FF93E0914D03F0914E0380814A
:100CD000E0915303F091540382FD1BC090818091F9
:100CE00056038F5F8F7320915703821741F0E09175
:100CF0005603F0E0E35CFC4F958F80935603FF9121
:100D0000EF919F918F912F910F900FBE0F901F9099
:100D100018958081F4CF1F920F920FB60F92112475
:100D20002F933F938F939F93AF93BF938091BA027A
:100D30009091BB02A091BC02B091BD023091B9026A
:100D400023E0230F2D3758F50196A11DB11D2093E7
:100D5000B9028093BA029093BB02A093BC02B093F5
:100D6000BD028091B5029091B602A091B702B091F8
:100D7000B8020196A11DB11D8093B5029093B602F1
:100D8000A093B702B093B802BF91AF919F918F919A
:100D90003F912F910F900FBE0F901F90189526E84E
:100DA000230F0296A11DB11DD2CF1F920F920FB635
:100DB0000F9211242F933F934F935F936F937F93E1
:100DC0008F939F93AF93BF93EF93FF938091B9005D
:100DD000887F803609F44AC0F0F5883209F4A7C04C
:100DE00018F5803109F49BC0B8F4882309F4F9C0E0
:100DF000883009F494C0FF91EF91BF91AF919F911A
:100E00008F917F916F915F914F913F912F910F90B3
:100E10000FBE0F901F901895883109F488C080325A
:100E200051F78093F80214C0803409F49DC040F457
:100E30008033B9F38833F9F68093F80285ECB0C0BB
:100E4000803509F485C0883509F496C0883499F650
:100E50000E943F03D0CF883909F48CC038F5883719
:100E600029F050F4883611F0803729F683E080931A
:100E7000FA021092B40257C0883809F47BC0803956
:100E800019F0803809F0B7CF8091B402803208F0B1
:100E900071C0E091B40281E08E0F8093B402809122
:100EA000BB00F0E0EC56FD4F80833DC0803B39F045
:100EB000E0F4803A09F479C0883A09F09CCF84E0E4
:100EC0008093FA021092930210929202E091D00263
:100ED000F091D10209958091920281110FC081E0B9
:100EE000809392021092720209C0803C09F4A6CF4E
:100EF000883C09F4A3CF883B09F07DCFE0919302B1
:100F000081E08E0F80939302F0E0EE58FD4F8081D8
:100F10008093BB00909193028091920229C08091AE
:100F2000D5028093BB0085EC8093BC0064CF909188
:100F3000F7028091F602981758F5E091F70281E0E8
:100F40008E0F8093F702F0E0EA52FD4F8081E9CFE7
:100F5000E091F70281E08E0F8093F7028091BB0051
:100F6000F0E0EA52FD4F80839091F7028091F60203
:100F70009817C8F285E8D8CFE091F70281E08E0F8C
:100F80008093F7028091BB00F0E0EA52FD4F80832E
:100F90008091F90281115CCF81E08093D40284EAD0
:100FA0008093BC001092FA0226CF85EC8093BC009F
:100FB0001092FA028091B402803230F4E091B402CF
:100FC000F0E0EC56FD4F10826091B40270E0E091C9
:100FD000CE02F091CF0284E992E009951092B4021A
:100FE0000ACF1092F80234CFEDE3F3E013821282BD
:100FF00088EE93E0A0E0B0E084839583A683B78376
:1010000026E531E03183208325EC30E035872487E5
:1010100024EC30E03787268720EC30E0318B208BC2
:1010200021EC30E0338B228B22EC30E0358B248BAB
:1010300026EC30E0378B268B118E128E138E148E99
:10104000EAEDF3E01382128284839583A683B7834B
:1010500088E691E091838083E6EEF3E013821282CA
:101060008AE791E09183808387E2848315820895E3
:10107000789484B5826084BD84B5816084BD85B573
:10108000826085BD85B5816085BD80916E0081607F
:1010900080936E0010928100809181008260809325
:1010A0008100809181008160809381008091800027
:1010B0008160809380008091B10084608093B10052
:1010C0008091B00081608093B00080917A0084604C
:1010D00080937A0080917A00826080937A00809178
:1010E0007A00816080937A0080917A008068809392
:1010F0007A001092C100E0914D03F0914E0382E01E
:101100008083E0914D03F0914E031082E0914903FA
:10111000F0914A031082E0914B03F0914C0380E17F
:10112000808310925503E0915103F091520386E0C1
:101130008083E0914F03F091500380818061808330
:10114000E0914F03F0915003808188608083E091AB
:101150004F03F0915003808180688083E0914F03BA
:10116000F091500380818F7D808381E991E00E941E
:101170001E0688E991E00E941E060E94CF0281E0CF
:101180008093FB0287E280931D031092FC02109271
:101190001E030E941701C82FD0E06CEA71E08DE3B6
:1011A00093E00E943106CE010E94060584EB91E097
:1011B000CD2B11F081EC91E00E941E0682ED91E0B2
:1011C0000E941E0612E01093EF0388E08093EC0368
:1011D0000E94CF0220E040E060E086EE93E00E94B3
:1011E000F6038BE39DE00197F1F740E063E086EEC4
:1011F00093E00E941804CBE4D6E4CE010197F1F706
:1012000040E063E086EE93E00E9418042197F1F736
:1012100040E063E086EE93E00E94180483E592E0EC
:101220000197F1F740E062E086EE93E00E94180437
:101230006091EC03606240E086EE93E00E9431042E
:1012400084E08093ED0340E06CE086EE93E00E9442
:1012500031040E9480041093EE0340E066E086EEC5
:1012600093E00E9431048FEF8093EB0320E041E094
:1012700060E086EE93E00E94F60361E088E00E9461
:1012800001030E94140410922D0310922E038AE091
:10129000E8E4F1E0A3E2B3E001900D928A95E1F772
:1012A0008AE08093340361E00E940103E4EAF0E005
:1012B000E491E0931F03E0E9F0E0E491E093200380
:1012C0000E94870060E08DE00E94830261E08DE073
:1012D0000E94010361E085E00E94010360E08DE06F
:1012E0000E94830260E085E00E94830250E0E52EC8
:1012F00050E0F52E01E4B0902D0362E082E00E9400
:10130000010324E630E0CC24CA9443E0D42ED0E09C
:10131000C0E000937C0080917A00806480937A0022
:1013200080917A0086FDFCCF9091780080917900C1
:10133000892798278927C817D9070CF42EC18C153F
:101340009D050CF46C012150310919F7809121039E
:1013500090912203019741F480912B0390912C03EB
:1013600015E0C816D90608F580912303909124034F
:1013700011E0C817D907C8F480912503909126037E
:1013800012E0C817D90788F48091270390912803A9
:1013900013E0C817D90748F48091290390912A03D4
:1013A00010E08C179D0708F414E0B11679F08091D5
:1013B0002F03181709F4F3C00E943203609330031F
:1013C00070933103809332039093330310932F0370
:1013D00080912D03B81609F45BC0813009F002C179
:1013E0000E9414040E94870061EE71E08DE393E097
:1013F0000E9431064B2D50E070E060E02AE08DE362
:1014000093E00E94BA0469EE71E08DE393E00E94DC
:10141000310640912D0350E070E060E02AE08DE35A
:1014200093E00E94BA046CEE71E08DE393E00E94B9
:101430003106C6010E94060567EE71E08DE393E078
:101440000E943106CE010E94060560EF71E08DE337
:1014500093E00E94310690E080E00E944E0C482FFD
:1014600050E070E060E02AE08DE393E00E94BA046F
:1014700067EE71E08DE393E00E94310668EF71E062
:101480008DE393E00E94310680E991E00E941E0600
:10149000B0922E030E9432034090C6025090C702C1
:1014A0006090C8027090C90264197509860997098D
:1014B000653F71408105910508F452C00E943203D6
:1014C0006093C6027093C7028093C8029093C902CA
:1014D00061E080E00E9446046FEF71E086EE93E0E9
:1014E0000E943106B601DD0C880B990B0E94720D2B
:1014F00020E030E040EA50E40E94270E20E030E097
:1015000040E85AE30E94270E42E00E943A0561E05B
:1015100088E00E94460465E072E086EE93E00E9457
:101520003106BE01DD0F880B990B0E94720D20E081
:1015300030E040EA50E40E94270E20E030E040E82E
:101540005AE30E94270E42E00E943A0561E08FE0D4
:101550000E9446046AE072E086EE93E00E94310643
:1015600080912D0390912E03891759F0833009F44F
:1015700079C108F091C0813009F499C0823009F432
:1015800049C1E114F10409F4B6CE0E94E0018823B8
:1015900009F4B0CE0E940000ADCEEC01D4CE0E9482
:1015A00032034090300350903103609032037090CA
:1015B000330364197509860997093AEF432E512CB4
:1015C000612C712C113029F429E1422E512C612C0F
:1015D000712C641575058605970508F4F7CE1093F0
:1015E0002D03F4CE823041F40E9414048091340320
:1015F00090E00E94A500F8CE833009F042C08091AF
:10160000340390E00E94A50061E088E00E9483021C
:101610000E9432034090BE025090BF026090C00210
:101620007090C102AB01BC014419550966097709E4
:10163000483E53406105710508F4D6CE4091C20280
:101640005091C3026091C4027091C5024F5F5F4F19
:101650006F4F7F4F4093C2025093C3026093C40206
:101660007093C502D301C20188519C4FAF4FBF4F49
:101670008093BE029093BF02A093C002B093C102B8
:10168000C7CF843009F4ACCE853009F4ADCF0E94C9
:1016900087000E941404A8CE843009F4FAC0853073
:1016A00009F06FCF0E94800460E472E0D6C010920F
:1016B000CA021092CB021092CC021092CD020E946C
:1016C000800468E371E081E00E948B0460E080E0C8
:1016D0000E94460461E086EE93E00E947A0460E393
:1016E00071E082E00E948B0460E081E00E94460489
:1016F00062E086EE93E00E947A0460E082E00E945D
:1017000046046CE072E086EE93E00E94310668E2E7
:1017100071E083E00E948B0460E083E00E94460455
:1017200063E086EE93E00E947A0460E271E084E078
:101730000E948B0460E084E00E94460464E086EE30
:1017400093E00E947A0468E171E085E00E948B04D6
:1017500060E085E00E94460465E086EE93E00E942A
:101760007A0460E171E086E00E948B0460E086E02C
:101770000E94460466E086EE93E00E947A0468E0E8
:1017800071E087E00E948B0460E087E00E944604DD
:1017900067E086EE93E00E947A0460E088E00E94B1
:1017A000460463E086EE93E00E947A0460E071E014
:1017B00088E00E948B0460E089E00E94460468E0B3
:1017C00086EE93E00E947A0460E08AE00E9446047C
:1017D00066E971E086EE93E00E94310660E08BE0FE
:1017E0000E94460468E086EE93E00E947A0460E07E
:1017F0008CE00E94460461E086EE93E00E947A0449
:1018000060E08DE00E94460466E086EE93E00E9470
:101810007A04B7CE0E9480048091CA029091CB02D4
:10182000A091CC02B091CD02892B8A2B8B2B31F465
:101830006EE072E086EE93E00E9431068091CA026B
:101840009091CB02A091CC02B091CD0268E172E000
:10185000892B8A2B8B2B09F494CE86EE93E00E9481
:1018600031068FCE0E94800460E272E086EE93E043
:101870000E94310669E272E086EE93E00E94310632
:101880006DE272E086EE93E00E94310660E372E062
:10189000E4CF0E94800462E372E0DFCFF999FECFCB
:1018A00092BD81BDF89A992780B508955058BB27FD
:1018B000AA270E946E0C0C94E80D0E94DA0D38F0F5
:1018C0000E94E10D20F039F49F3F19F426F40C94A6
:1018D000D70D0EF4E095E7FB0C94D10DE92F0E9493
:1018E000F90D58F3BA17620773078407950720F0BC
:1018F00079F4A6F50C941B0E0EF4E0950B2EBA2F7E
:10190000A02D0B01B90190010C01CA01A001112405
:10191000FF27591B99F0593F50F4503E68F11A16B1
:10192000F040A22F232F342F4427585FF3CF469542
:1019300037952795A795F0405395C9F77EF41F1664
:10194000BA0B620B730B840BBAF09150A1F0FF0F2E
:10195000BB1F661F771F881FC2F70EC0BA0F621F1A
:10196000731F841F48F4879577956795B795F7950A
:101970009E3F08F0B0CF9395880F08F09927EE0F9F
:101980009795879508950E94AD0D08F481E008951C
:101990000E94DC0C0C94E80D0E94E10D58F00E94AE
:1019A000DA0D40F029F45F3F29F00C94D10D51116C
:1019B0000C941C0E0C94D70D0E94F90D68F399231A
:1019C000B1F3552391F3951B550BBB27AA2762173B
:1019D0007307840738F09F5F5F4F220F331F441F48
:1019E000AA1FA9F335D00E2E3AF0E0E832D091507C
:1019F0005040E695001CCAF72BD0FE2F29D0660F69
:101A0000771F881FBB1F261737074807AB07B0E8AB
:101A100009F0BB0B802DBF01FF2793585F4F3AF0B1
:101A20009E3F510578F00C94D10D0C941C0E5F3F35
:101A3000E4F3983ED4F3869577956795B795F79537
:101A40009F5FC9F7880F911D9695879597F908951F
:101A5000E1E0660F771F881FBB1F621773078407BB
:101A6000BA0720F0621B730B840BBA0BEE1F88F7CA
:101A7000E09508950E94410D6894B1110C941C0EDC
:101A800008950E94010E88F09F5798F0B92F99276A
:101A9000B751B0F0E1F0660F771F881F991F1AF059
:101AA000BA95C9F714C0B13091F00E941B0EB1E095
:101AB00008950C941B0E672F782F8827B85F39F094
:101AC000B93FCCF3869577956795B395D9F73EF4F2
:101AD00090958095709561957F4F8F4F9F4F08959A
:101AE000E89409C097FB3EF49095809570956195B8
:101AF0007F4F8F4F9F4F9923A9F0F92F96E9BB276E
:101B00009395F695879577956795B795F111F8CFE9
:101B1000FAF4BB0F11F460FF1BC06F5F7F4F8F4F54
:101B20009F4F16C0882311F096E911C0772321F04A
:101B30009EE8872F762F05C0662371F096E8862FE2
:101B400070E060E02AF09A95660F771F881FDAF739
:101B5000880F9695879597F90895990F0008550F66
:101B6000AA0BE0E8FEEF16161706E807F907C0F023
:101B700012161306E407F50798F0621B730B840B2B
:101B8000950B39F40A2661F0232B242B252B21F405
:101B900008950A2609F4A140A6958FEF811D811DA5
:101BA000089597F99F6780E870E060E008959FEFDF
:101BB00080EC089500240A941616170618060906E4
:101BC000089500240A9412161306140605060895B3
:101BD000092E0394000C11F4882352F0BB0F40F43B
:101BE000BF2B11F460FF04C06F5F7F4F8F4F9F4F7B
:101BF000089557FD9058440F551F59F05F3F71F0FD
:101C00004795880F97FB991F61F09F3F79F0879563
:101C10000895121613061406551FF2CF4695F1DFEC
:101C200008C0161617061806991FF1CF869571057C
:101C3000610508940895E894BB2766277727CB01B0
:101C400097F908950E94AD0D08F48FEF08950E9452
:101C50003A0E0C94E80D0E94DA0D38F00E94E10D66
:101C600020F0952311F00C94D10D0C94D70D112474
:101C70000C941C0E0E94F90D70F3959FC1F3950F03
:101C800050E0551F629FF001729FBB27F00DB11D00
:101C9000639FAA27F00DB11DAA1F649F6627B00D90
:101CA000A11D661F829F2227B00DA11D621F739F79
:101CB000B00DA11D621F839FA00D611D221F749F87
:101CC0003327A00D611D231F849F600D211D822FCE
:101CD000762F6A2F11249F5750409AF0F1F08823F5
:101CE0004AF0EE0FFF1FBB1F661F771F881F915022
:101CF0005040A9F79E3F510580F00C94D10D0C94F3
:101D00001C0E5F3FE4F3983ED4F386957795679574
:101D1000B795F795E7959F5FC1F7FE2B880F911D4B
:101D20009695879597F908950E94AD0D880B990BAC
:101D30000895A1E21A2EAA1BBB1BFD010DC0AA1F0C
:101D4000BB1FEE1FFF1FA217B307E407F50720F024
:101D5000A21BB30BE40BF50B661F771F881F991F9F
:101D60001A9469F760957095809590959B01AC01E8
:101D7000BD01CF010895EE0FFF1F0590F491E02DF6
:061D80000994F894FFCF66
:101D860011111915131111000E04040404040E0098
:101D96001F040404040404001111111111110E0092
:101DA6001010101010101F000E11111111110E003D
:101DB60011111111110A04001F10101E10101F001E
:101DC60000004000140054006C030D03B202000032
:101DD60004010000000016027601A3016302D4018B
:101DE600B201C60100000000C7039A031104700384
:101DF600930380037103000000007A047601110446
:101E06003E036E616E00696E66006F7666000D0AAF
:101E1600004C43442E2E2E00446F73653A206368AF
:101E260065636B20666F72204C4344004572726F87
:101E3600723A20003A204C434420666F756E642E39
:101E4600003A204C4344206E6F7420666F756E64B2
:101E56002E0045562D4F4C5554494F4E2E4E455447
:101E66000073746174653A20002D3E0020702000D6
:101E7600454570726F6D2000647574793A20004193
:101E8600316D696E00566D61780056002D00434F26
:101E96004E4E45435445440043484152474544004D
:101EA6004348415247494E47002040200031300008
:101EB600410056454E54205245515549524544001D
:101EC60044494F44452043484B204641494C4544EC
:021ED60000000A
:00000001FF
